{
  "_format": "hh-sol-artifact-1",
  "contractName": "PoPBadge",
  "sourceName": "contracts/PoPBadge.sol",
  "abi": [
    {
      "inputs": [],
      "stateMutability": "nonpayable",
      "type": "constructor"
    },
    {
      "inputs": [
        {
          "internalType": "address",
          "name": "sender",
          "type": "address"
        },
        {
          "internalType": "uint256",
          "name": "tokenId",
          "type": "uint256"
        },
        {
          "internalType": "address",
          "name": "owner",
          "type": "address"
        }
      ],
      "name": "ERC721IncorrectOwner",
      "type": "error"
    },
    {
      "inputs": [
        {
          "internalType": "address",
          "name": "operator",
          "type": "address"
        },
        {
          "internalType": "uint256",
          "name": "tokenId",
          "type": "uint256"
        }
      ],
      "name": "ERC721InsufficientApproval",
      "type": "error"
    },
    {
      "inputs": [
        {
          "internalType": "address",
          "name": "approver",
          "type": "address"
        }
      ],
      "name": "ERC721InvalidApprover",
      "type": "error"
    },
    {
      "inputs": [
        {
          "internalType": "address",
          "name": "operator",
          "type": "address"
        }
      ],
      "name": "ERC721InvalidOperator",
      "type": "error"
    },
    {
      "inputs": [
        {
          "internalType": "address",
          "name": "owner",
          "type": "address"
        }
      ],
      "name": "ERC721InvalidOwner",
      "type": "error"
    },
    {
      "inputs": [
        {
          "internalType": "address",
          "name": "receiver",
          "type": "address"
        }
      ],
      "name": "ERC721InvalidReceiver",
      "type": "error"
    },
    {
      "inputs": [
        {
          "internalType": "address",
          "name": "sender",
          "type": "address"
        }
      ],
      "name": "ERC721InvalidSender",
      "type": "error"
    },
    {
      "inputs": [
        {
          "internalType": "uint256",
          "name": "tokenId",
          "type": "uint256"
        }
      ],
      "name": "ERC721NonexistentToken",
      "type": "error"
    },
    {
      "inputs": [
        {
          "internalType": "address",
          "name": "owner",
          "type": "address"
        }
      ],
      "name": "OwnableInvalidOwner",
      "type": "error"
    },
    {
      "inputs": [
        {
          "internalType": "address",
          "name": "account",
          "type": "address"
        }
      ],
      "name": "OwnableUnauthorizedAccount",
      "type": "error"
    },
    {
      "anonymous": false,
      "inputs": [
        {
          "indexed": true,
          "internalType": "address",
          "name": "owner",
          "type": "address"
        },
        {
          "indexed": true,
          "internalType": "address",
          "name": "approved",
          "type": "address"
        },
        {
          "indexed": true,
          "internalType": "uint256",
          "name": "tokenId",
          "type": "uint256"
        }
      ],
      "name": "Approval",
      "type": "event"
    },
    {
      "anonymous": false,
      "inputs": [
        {
          "indexed": true,
          "internalType": "address",
          "name": "owner",
          "type": "address"
        },
        {
          "indexed": true,
          "internalType": "address",
          "name": "operator",
          "type": "address"
        },
        {
          "indexed": false,
          "internalType": "bool",
          "name": "approved",
          "type": "bool"
        }
      ],
      "name": "ApprovalForAll",
      "type": "event"
    },
    {
      "anonymous": false,
      "inputs": [
        {
          "indexed": false,
          "internalType": "uint256",
          "name": "_fromTokenId",
          "type": "uint256"
        },
        {
          "indexed": false,
          "internalType": "uint256",
          "name": "_toTokenId",
          "type": "uint256"
        }
      ],
      "name": "BatchMetadataUpdate",
      "type": "event"
    },
    {
      "anonymous": false,
      "inputs": [
        {
          "indexed": false,
          "internalType": "uint256",
          "name": "_tokenId",
          "type": "uint256"
        }
      ],
      "name": "MetadataUpdate",
      "type": "event"
    },
    {
      "anonymous": false,
      "inputs": [
        {
          "indexed": true,
          "internalType": "address",
          "name": "previousOwner",
          "type": "address"
        },
        {
          "indexed": true,
          "internalType": "address",
          "name": "newOwner",
          "type": "address"
        }
      ],
      "name": "OwnershipTransferred",
      "type": "event"
    },
    {
      "anonymous": false,
      "inputs": [
        {
          "indexed": true,
          "internalType": "address",
          "name": "from",
          "type": "address"
        },
        {
          "indexed": true,
          "internalType": "address",
          "name": "to",
          "type": "address"
        },
        {
          "indexed": true,
          "internalType": "uint256",
          "name": "tokenId",
          "type": "uint256"
        }
      ],
      "name": "Transfer",
      "type": "event"
    },
    {
      "inputs": [
        {
          "internalType": "address",
          "name": "to",
          "type": "address"
        },
        {
          "internalType": "uint256",
          "name": "tokenId",
          "type": "uint256"
        }
      ],
      "name": "approve",
      "outputs": [],
      "stateMutability": "nonpayable",
      "type": "function"
    },
    {
      "inputs": [
        {
          "internalType": "address",
          "name": "owner",
          "type": "address"
        }
      ],
      "name": "balanceOf",
      "outputs": [
        {
          "internalType": "uint256",
          "name": "",
          "type": "uint256"
        }
      ],
      "stateMutability": "view",
      "type": "function"
    },
    {
      "inputs": [
        {
          "internalType": "uint256",
          "name": "tokenId",
          "type": "uint256"
        }
      ],
      "name": "getApproved",
      "outputs": [
        {
          "internalType": "address",
          "name": "",
          "type": "address"
        }
      ],
      "stateMutability": "view",
      "type": "function"
    },
    {
      "inputs": [
        {
          "internalType": "address",
          "name": "owner",
          "type": "address"
        },
        {
          "internalType": "address",
          "name": "operator",
          "type": "address"
        }
      ],
      "name": "isApprovedForAll",
      "outputs": [
        {
          "internalType": "bool",
          "name": "",
          "type": "bool"
        }
      ],
      "stateMutability": "view",
      "type": "function"
    },
    {
      "inputs": [
        {
          "internalType": "address",
          "name": "to",
          "type": "address"
        },
        {
          "internalType": "string",
          "name": "tokenURI",
          "type": "string"
        }
      ],
      "name": "mintBadge",
      "outputs": [],
      "stateMutability": "nonpayable",
      "type": "function"
    },
    {
      "inputs": [],
      "name": "name",
      "outputs": [
        {
          "internalType": "string",
          "name": "",
          "type": "string"
        }
      ],
      "stateMutability": "view",
      "type": "function"
    },
    {
      "inputs": [],
      "name": "owner",
      "outputs": [
        {
          "internalType": "address",
          "name": "",
          "type": "address"
        }
      ],
      "stateMutability": "view",
      "type": "function"
    },
    {
      "inputs": [
        {
          "internalType": "uint256",
          "name": "tokenId",
          "type": "uint256"
        }
      ],
      "name": "ownerOf",
      "outputs": [
        {
          "internalType": "address",
          "name": "",
          "type": "address"
        }
      ],
      "stateMutability": "view",
      "type": "function"
    },
    {
      "inputs": [],
      "name": "renounceOwnership",
      "outputs": [],
      "stateMutability": "nonpayable",
      "type": "function"
    },
    {
      "inputs": [
        {
          "internalType": "address",
          "name": "from",
          "type": "address"
        },
        {
          "internalType": "address",
          "name": "to",
          "type": "address"
        },
        {
          "internalType": "uint256",
          "name": "tokenId",
          "type": "uint256"
        }
      ],
      "name": "safeTransferFrom",
      "outputs": [],
      "stateMutability": "nonpayable",
      "type": "function"
    },
    {
      "inputs": [
        {
          "internalType": "address",
          "name": "from",
          "type": "address"
        },
        {
          "internalType": "address",
          "name": "to",
          "type": "address"
        },
        {
          "internalType": "uint256",
          "name": "tokenId",
          "type": "uint256"
        },
        {
          "internalType": "bytes",
          "name": "data",
          "type": "bytes"
        }
      ],
      "name": "safeTransferFrom",
      "outputs": [],
      "stateMutability": "nonpayable",
      "type": "function"
    },
    {
      "inputs": [
        {
          "internalType": "address",
          "name": "operator",
          "type": "address"
        },
        {
          "internalType": "bool",
          "name": "approved",
          "type": "bool"
        }
      ],
      "name": "setApprovalForAll",
      "outputs": [],
      "stateMutability": "nonpayable",
      "type": "function"
    },
    {
      "inputs": [
        {
          "internalType": "bytes4",
          "name": "interfaceId",
          "type": "bytes4"
        }
      ],
      "name": "supportsInterface",
      "outputs": [
        {
          "internalType": "bool",
          "name": "",
          "type": "bool"
        }
      ],
      "stateMutability": "view",
      "type": "function"
    },
    {
      "inputs": [],
      "name": "symbol",
      "outputs": [
        {
          "internalType": "string",
          "name": "",
          "type": "string"
        }
      ],
      "stateMutability": "view",
      "type": "function"
    },
    {
      "inputs": [
        {
          "internalType": "uint256",
          "name": "tokenId",
          "type": "uint256"
        }
      ],
      "name": "tokenURI",
      "outputs": [
        {
          "internalType": "string",
          "name": "",
          "type": "string"
        }
      ],
      "stateMutability": "view",
      "type": "function"
    },
    {
      "inputs": [
        {
          "internalType": "address",
          "name": "from",
          "type": "address"
        },
        {
          "internalType": "address",
          "name": "to",
          "type": "address"
        },
        {
          "internalType": "uint256",
          "name": "tokenId",
          "type": "uint256"
        }
      ],
      "name": "transferFrom",
      "outputs": [],
      "stateMutability": "nonpayable",
      "type": "function"
    },
    {
      "inputs": [
        {
          "internalType": "address",
          "name": "newOwner",
          "type": "address"
        }
      ],
      "name": "transferOwnership",
      "outputs": [],
      "stateMutability": "nonpayable",
      "type": "function"
    }
  ],
  "bytecode": "0x608060405234801561001057600080fd5b50336040518060400160405280601481526020017f50726f6f664f6650617274696369706174696f6e0000000000000000000000008152506040518060400160405280600381526020017f506f500000000000000000000000000000000000000000000000000000000000815250816000908161008d919061043d565b50806001908161009d919061043d565b505050600073ffffffffffffffffffffffffffffffffffffffff168173ffffffffffffffffffffffffffffffffffffffff16036101125760006040517f1e4fbdf70000000000000000000000000000000000000000000000000000000081526004016101099190610550565b60405180910390fd5b6101218161012760201b60201c565b5061056b565b6000600760009054906101000a900473ffffffffffffffffffffffffffffffffffffffff16905081600760006101000a81548173ffffffffffffffffffffffffffffffffffffffff021916908373ffffffffffffffffffffffffffffffffffffffff1602179055508173ffffffffffffffffffffffffffffffffffffffff168173ffffffffffffffffffffffffffffffffffffffff167f8be0079c531659141344cd1fd0a4f28419497f9722a3daafe3b4186f6b6457e060405160405180910390a35050565b600081519050919050565b7f4e487b7100000000000000000000000000000000000000000000000000000000600052604160045260246000fd5b7f4e487b7100000000000000000000000000000000000000000000000000000000600052602260045260246000fd5b6000600282049050600182168061026e57607f821691505b60208210810361028157610280610227565b5b50919050565b60008190508160005260206000209050919050565b60006020601f8301049050919050565b600082821b905092915050565b6000600883026102e97fffffffffffffffffffffffffffffffffffffffffffffffffffffffffffffffff826102ac565b6102f386836102ac565b95508019841693508086168417925050509392505050565b6000819050919050565b6000819050919050565b600061033a6103356103308461030b565b610315565b61030b565b9050919050565b6000819050919050565b6103548361031f565b61036861036082610341565b8484546102b9565b825550505050565b600090565b61037d610370565b61038881848461034b565b505050565b5b818110156103ac576103a1600082610375565b60018101905061038e565b5050565b601f8211156103f1576103c281610287565b6103cb8461029c565b810160208510156103da578190505b6103ee6103e68561029c565b83018261038d565b50505b505050565b600082821c905092915050565b6000610414600019846008026103f6565b1980831691505092915050565b600061042d8383610403565b9150826002028217905092915050565b610446826101ed565b67ffffffffffffffff81111561045f5761045e6101f8565b5b6104698254610256565b6104748282856103b0565b600060209050601f8311600181146104a75760008415610495578287015190505b61049f8582610421565b865550610507565b601f1984166104b586610287565b60005b828110156104dd578489015182556001820191506020850194506020810190506104b8565b868310156104fa57848901516104f6601f891682610403565b8355505b6001600288020188555050505b505050505050565b600073ffffffffffffffffffffffffffffffffffffffff82169050919050565b600061053a8261050f565b9050919050565b61054a8161052f565b82525050565b60006020820190506105656000830184610541565b92915050565b6127928061057a6000396000f3fe608060405234801561001057600080fd5b506004361061010b5760003560e01c806370a08231116100a2578063a22cb46511610071578063a22cb465146102a4578063b88d4fde146102c0578063c87b56dd146102dc578063e985e9c51461030c578063f2fde38b1461033c5761010b565b806370a082311461022e578063715018a61461025e5780638da5cb5b1461026857806395d89b41146102865761010b565b806323b872dd116100de57806323b872dd146101aa57806342842e0e146101c65780636352211e146101e25780636b2bafc8146102125761010b565b806301ffc9a71461011057806306fdde0314610140578063081812fc1461015e578063095ea7b31461018e575b600080fd5b61012a60048036038101906101259190611b7e565b610358565b6040516101379190611bc6565b60405180910390f35b6101486103b9565b6040516101559190611c71565b60405180910390f35b61017860048036038101906101739190611cc9565b61044b565b6040516101859190611d37565b60405180910390f35b6101a860048036038101906101a39190611d7e565b610467565b005b6101c460048036038101906101bf9190611dbe565b61047d565b005b6101e060048036038101906101db9190611dbe565b61057f565b005b6101fc60048036038101906101f79190611cc9565b61059f565b6040516102099190611d37565b60405180910390f35b61022c60048036038101906102279190611f46565b6105b1565b005b61024860048036038101906102439190611fa2565b6105ed565b6040516102559190611fde565b60405180910390f35b6102666106a7565b005b6102706106bb565b60405161027d9190611d37565b60405180910390f35b61028e6106e5565b60405161029b9190611c71565b60405180910390f35b6102be60048036038101906102b99190612025565b610777565b005b6102da60048036038101906102d59190612106565b61078d565b005b6102f660048036038101906102f19190611cc9565b6107b2565b6040516103039190611c71565b60405180910390f35b61032660048036038101906103219190612189565b6108c5565b6040516103339190611bc6565b60405180910390f35b61035660048036038101906103519190611fa2565b610959565b005b6000634906490660e01b7bffffffffffffffffffffffffffffffffffffffffffffffffffffffff1916827bffffffffffffffffffffffffffffffffffffffffffffffffffffffff191614806103b257506103b1826109df565b5b9050919050565b6060600080546103c8906121f8565b80601f01602080910402602001604051908101604052809291908181526020018280546103f4906121f8565b80156104415780601f1061041657610100808354040283529160200191610441565b820191906000526020600020905b81548152906001019060200180831161042457829003601f168201915b5050505050905090565b600061045682610ac1565b5061046082610b49565b9050919050565b6104798282610474610b86565b610b8e565b5050565b600073ffffffffffffffffffffffffffffffffffffffff168273ffffffffffffffffffffffffffffffffffffffff16036104ef5760006040517f64a0ae920000000000000000000000000000000000000000000000000000000081526004016104e69190611d37565b60405180910390fd5b600061050383836104fe610b86565b610ba0565b90508373ffffffffffffffffffffffffffffffffffffffff168173ffffffffffffffffffffffffffffffffffffffff1614610579578382826040517f64283d7b00000000000000000000000000000000000000000000000000000000815260040161057093929190612229565b60405180910390fd5b50505050565b61059a8383836040518060200160405280600081525061078d565b505050565b60006105aa82610ac1565b9050919050565b6105b9610c62565b6000600860008154809291906105ce9061228f565b9190505590506105de8382610ce9565b6105e88183610d07565b505050565b60008073ffffffffffffffffffffffffffffffffffffffff168273ffffffffffffffffffffffffffffffffffffffff16036106605760006040517f89c62b640000000000000000000000000000000000000000000000000000000081526004016106579190611d37565b60405180910390fd5b600360008373ffffffffffffffffffffffffffffffffffffffff1673ffffffffffffffffffffffffffffffffffffffff168152602001908152602001600020549050919050565b6106af610c62565b6106b96000610d63565b565b6000600760009054906101000a900473ffffffffffffffffffffffffffffffffffffffff16905090565b6060600180546106f4906121f8565b80601f0160208091040260200160405190810160405280929190818152602001828054610720906121f8565b801561076d5780601f106107425761010080835404028352916020019161076d565b820191906000526020600020905b81548152906001019060200180831161075057829003601f168201915b5050505050905090565b610789610782610b86565b8383610e29565b5050565b61079884848461047d565b6107ac6107a3610b86565b85858585610f98565b50505050565b60606107bd82610ac1565b5060006006600084815260200190815260200160002080546107de906121f8565b80601f016020809104026020016040519081016040528092919081815260200182805461080a906121f8565b80156108575780601f1061082c57610100808354040283529160200191610857565b820191906000526020600020905b81548152906001019060200180831161083a57829003601f168201915b505050505090506000610868611149565b9050600081510361087d5781925050506108c0565b6000825111156108b257808260405160200161089a929190612313565b604051602081830303815290604052925050506108c0565b6108bb84611160565b925050505b919050565b6000600560008473ffffffffffffffffffffffffffffffffffffffff1673ffffffffffffffffffffffffffffffffffffffff16815260200190815260200160002060008373ffffffffffffffffffffffffffffffffffffffff1673ffffffffffffffffffffffffffffffffffffffff16815260200190815260200160002060009054906101000a900460ff16905092915050565b610961610c62565b600073ffffffffffffffffffffffffffffffffffffffff168173ffffffffffffffffffffffffffffffffffffffff16036109d35760006040517f1e4fbdf70000000000000000000000000000000000000000000000000000000081526004016109ca9190611d37565b60405180910390fd5b6109dc81610d63565b50565b60007f80ac58cd000000000000000000000000000000000000000000000000000000007bffffffffffffffffffffffffffffffffffffffffffffffffffffffff1916827bffffffffffffffffffffffffffffffffffffffffffffffffffffffff19161480610aaa57507f5b5e139f000000000000000000000000000000000000000000000000000000007bffffffffffffffffffffffffffffffffffffffffffffffffffffffff1916827bffffffffffffffffffffffffffffffffffffffffffffffffffffffff1916145b80610aba5750610ab9826111c9565b5b9050919050565b600080610acd83611233565b9050600073ffffffffffffffffffffffffffffffffffffffff168173ffffffffffffffffffffffffffffffffffffffff1603610b4057826040517f7e273289000000000000000000000000000000000000000000000000000000008152600401610b379190611fde565b60405180910390fd5b80915050919050565b60006004600083815260200190815260200160002060009054906101000a900473ffffffffffffffffffffffffffffffffffffffff169050919050565b600033905090565b610b9b8383836001611270565b505050565b60008073ffffffffffffffffffffffffffffffffffffffff168273ffffffffffffffffffffffffffffffffffffffff161480610c0f5750610be08361059f565b73ffffffffffffffffffffffffffffffffffffffff168273ffffffffffffffffffffffffffffffffffffffff16145b610c4e576040517f08c379a0000000000000000000000000000000000000000000000000000000008152600401610c4590612383565b60405180910390fd5b610c59848484611435565b90509392505050565b610c6a610b86565b73ffffffffffffffffffffffffffffffffffffffff16610c886106bb565b73ffffffffffffffffffffffffffffffffffffffff1614610ce757610cab610b86565b6040517f118cdaa7000000000000000000000000000000000000000000000000000000008152600401610cde9190611d37565b60405180910390fd5b565b610d0382826040518060200160405280600081525061164f565b5050565b80600660008481526020019081526020016000209081610d27919061254f565b507ff8e1a15aba9398e019f0b49df1a4fde98ee17ae345cb5f6b5e2c27f5033e8ce782604051610d579190611fde565b60405180910390a15050565b6000600760009054906101000a900473ffffffffffffffffffffffffffffffffffffffff16905081600760006101000a81548173ffffffffffffffffffffffffffffffffffffffff021916908373ffffffffffffffffffffffffffffffffffffffff1602179055508173ffffffffffffffffffffffffffffffffffffffff168173ffffffffffffffffffffffffffffffffffffffff167f8be0079c531659141344cd1fd0a4f28419497f9722a3daafe3b4186f6b6457e060405160405180910390a35050565b600073ffffffffffffffffffffffffffffffffffffffff168273ffffffffffffffffffffffffffffffffffffffff1603610e9a57816040517f5b08ba18000000000000000000000000000000000000000000000000000000008152600401610e919190611d37565b60405180910390fd5b80600560008573ffffffffffffffffffffffffffffffffffffffff1673ffffffffffffffffffffffffffffffffffffffff16815260200190815260200160002060008473ffffffffffffffffffffffffffffffffffffffff1673ffffffffffffffffffffffffffffffffffffffff16815260200190815260200160002060006101000a81548160ff0219169083151502179055508173ffffffffffffffffffffffffffffffffffffffff168373ffffffffffffffffffffffffffffffffffffffff167f17307eab39ab6107e8899845ad3d59bd9653f200f220920489ca2b5937696c3183604051610f8b9190611bc6565b60405180910390a3505050565b60008373ffffffffffffffffffffffffffffffffffffffff163b1115611142578273ffffffffffffffffffffffffffffffffffffffff1663150b7a02868685856040518563ffffffff1660e01b8152600401610ff79493929190612676565b6020604051808303816000875af192505050801561103357506040513d601f19601f8201168201806040525081019061103091906126d7565b60015b6110b7573d8060008114611063576040519150601f19603f3d011682016040523d82523d6000602084013e611068565b606091505b5060008151036110af57836040517f64a0ae920000000000000000000000000000000000000000000000000000000081526004016110a69190611d37565b60405180910390fd5b805181602001fd5b63150b7a0260e01b7bffffffffffffffffffffffffffffffffffffffffffffffffffffffff1916817bffffffffffffffffffffffffffffffffffffffffffffffffffffffff19161461114057836040517f64a0ae920000000000000000000000000000000000000000000000000000000081526004016111379190611d37565b60405180910390fd5b505b5050505050565b606060405180602001604052806000815250905090565b606061116b82610ac1565b506000611176611149565b9050600081511161119657604051806020016040528060008152506111c1565b806111a084611673565b6040516020016111b1929190612313565b6040516020818303038152906040525b915050919050565b60007f01ffc9a7000000000000000000000000000000000000000000000000000000007bffffffffffffffffffffffffffffffffffffffffffffffffffffffff1916827bffffffffffffffffffffffffffffffffffffffffffffffffffffffff1916149050919050565b60006002600083815260200190815260200160002060009054906101000a900473ffffffffffffffffffffffffffffffffffffffff169050919050565b80806112a95750600073ffffffffffffffffffffffffffffffffffffffff168273ffffffffffffffffffffffffffffffffffffffff1614155b156113dd5760006112b984610ac1565b9050600073ffffffffffffffffffffffffffffffffffffffff168373ffffffffffffffffffffffffffffffffffffffff161415801561132457508273ffffffffffffffffffffffffffffffffffffffff168173ffffffffffffffffffffffffffffffffffffffff1614155b8015611337575061133581846108c5565b155b1561137957826040517fa9fbf51f0000000000000000000000000000000000000000000000000000000081526004016113709190611d37565b60405180910390fd5b81156113db57838573ffffffffffffffffffffffffffffffffffffffff168273ffffffffffffffffffffffffffffffffffffffff167f8c5be1e5ebec7d5bd14f71427d1e84f3dd0314c0f7b2291e5b200ac8c7c3b92560405160405180910390a45b505b836004600085815260200190815260200160002060006101000a81548173ffffffffffffffffffffffffffffffffffffffff021916908373ffffffffffffffffffffffffffffffffffffffff16021790555050505050565b60008061144184611233565b9050600073ffffffffffffffffffffffffffffffffffffffff168373ffffffffffffffffffffffffffffffffffffffff161461148357611482818486611741565b5b600073ffffffffffffffffffffffffffffffffffffffff168173ffffffffffffffffffffffffffffffffffffffff1614611514576114c5600085600080611270565b6001600360008373ffffffffffffffffffffffffffffffffffffffff1673ffffffffffffffffffffffffffffffffffffffff168152602001908152602001600020600082825403925050819055505b600073ffffffffffffffffffffffffffffffffffffffff168573ffffffffffffffffffffffffffffffffffffffff1614611597576001600360008773ffffffffffffffffffffffffffffffffffffffff1673ffffffffffffffffffffffffffffffffffffffff168152602001908152602001600020600082825401925050819055505b846002600086815260200190815260200160002060006101000a81548173ffffffffffffffffffffffffffffffffffffffff021916908373ffffffffffffffffffffffffffffffffffffffff160217905550838573ffffffffffffffffffffffffffffffffffffffff168273ffffffffffffffffffffffffffffffffffffffff167fddf252ad1be2c89b69c2b068fc378daa952ba7f163c4a11628f55a4df523b3ef60405160405180910390a4809150509392505050565b6116598383611805565b61166e611664610b86565b6000858585610f98565b505050565b606060006001611682846118fe565b01905060008167ffffffffffffffff8111156116a1576116a0611e1b565b5b6040519080825280601f01601f1916602001820160405280156116d35781602001600182028036833780820191505090505b509050600082602001820190505b600115611736578080600190039150507f3031323334353637383961626364656600000000000000000000000000000000600a86061a8153600a858161172a57611729612704565b5b049450600085036116e1575b819350505050919050565b61174c838383611a51565b61180057600073ffffffffffffffffffffffffffffffffffffffff168373ffffffffffffffffffffffffffffffffffffffff16036117c157806040517f7e2732890000000000000000000000000000000000000000000000000000000081526004016117b89190611fde565b60405180910390fd5b81816040517f177e802f0000000000000000000000000000000000000000000000000000000081526004016117f7929190612733565b60405180910390fd5b505050565b600073ffffffffffffffffffffffffffffffffffffffff168273ffffffffffffffffffffffffffffffffffffffff16036118775760006040517f64a0ae9200000000000000000000000000000000000000000000000000000000815260040161186e9190611d37565b60405180910390fd5b600061188583836000610ba0565b9050600073ffffffffffffffffffffffffffffffffffffffff168173ffffffffffffffffffffffffffffffffffffffff16146118f95760006040517f73c6ac6e0000000000000000000000000000000000000000000000000000000081526004016118f09190611d37565b60405180910390fd5b505050565b600080600090507a184f03e93ff9f4daa797ed6e38ed64bf6a1f010000000000000000831061195c577a184f03e93ff9f4daa797ed6e38ed64bf6a1f010000000000000000838161195257611951612704565b5b0492506040810190505b6d04ee2d6d415b85acef81000000008310611999576d04ee2d6d415b85acef8100000000838161198f5761198e612704565b5b0492506020810190505b662386f26fc1000083106119c857662386f26fc1000083816119be576119bd612704565b5b0492506010810190505b6305f5e10083106119f1576305f5e10083816119e7576119e6612704565b5b0492506008810190505b6127108310611a16576127108381611a0c57611a0b612704565b5b0492506004810190505b60648310611a395760648381611a2f57611a2e612704565b5b0492506002810190505b600a8310611a48576001810190505b80915050919050565b60008073ffffffffffffffffffffffffffffffffffffffff168373ffffffffffffffffffffffffffffffffffffffff1614158015611b0957508273ffffffffffffffffffffffffffffffffffffffff168473ffffffffffffffffffffffffffffffffffffffff161480611aca5750611ac984846108c5565b5b80611b0857508273ffffffffffffffffffffffffffffffffffffffff16611af083610b49565b73ffffffffffffffffffffffffffffffffffffffff16145b5b90509392505050565b6000604051905090565b600080fd5b600080fd5b60007fffffffff0000000000000000000000000000000000000000000000000000000082169050919050565b611b5b81611b26565b8114611b6657600080fd5b50565b600081359050611b7881611b52565b92915050565b600060208284031215611b9457611b93611b1c565b5b6000611ba284828501611b69565b91505092915050565b60008115159050919050565b611bc081611bab565b82525050565b6000602082019050611bdb6000830184611bb7565b92915050565b600081519050919050565b600082825260208201905092915050565b60005b83811015611c1b578082015181840152602081019050611c00565b60008484015250505050565b6000601f19601f8301169050919050565b6000611c4382611be1565b611c4d8185611bec565b9350611c5d818560208601611bfd565b611c6681611c27565b840191505092915050565b60006020820190508181036000830152611c8b8184611c38565b905092915050565b6000819050919050565b611ca681611c93565b8114611cb157600080fd5b50565b600081359050611cc381611c9d565b92915050565b600060208284031215611cdf57611cde611b1c565b5b6000611ced84828501611cb4565b91505092915050565b600073ffffffffffffffffffffffffffffffffffffffff82169050919050565b6000611d2182611cf6565b9050919050565b611d3181611d16565b82525050565b6000602082019050611d4c6000830184611d28565b92915050565b611d5b81611d16565b8114611d6657600080fd5b50565b600081359050611d7881611d52565b92915050565b60008060408385031215611d9557611d94611b1c565b5b6000611da385828601611d69565b9250506020611db485828601611cb4565b9150509250929050565b600080600060608486031215611dd757611dd6611b1c565b5b6000611de586828701611d69565b9350506020611df686828701611d69565b9250506040611e0786828701611cb4565b9150509250925092565b600080fd5b600080fd5b7f4e487b7100000000000000000000000000000000000000000000000000000000600052604160045260246000fd5b611e5382611c27565b810181811067ffffffffffffffff82111715611e7257611e71611e1b565b5b80604052505050565b6000611e85611b12565b9050611e918282611e4a565b919050565b600067ffffffffffffffff821115611eb157611eb0611e1b565b5b611eba82611c27565b9050602081019050919050565b82818337600083830152505050565b6000611ee9611ee484611e96565b611e7b565b905082815260208101848484011115611f0557611f04611e16565b5b611f10848285611ec7565b509392505050565b600082601f830112611f2d57611f2c611e11565b5b8135611f3d848260208601611ed6565b91505092915050565b60008060408385031215611f5d57611f5c611b1c565b5b6000611f6b85828601611d69565b925050602083013567ffffffffffffffff811115611f8c57611f8b611b21565b5b611f9885828601611f18565b9150509250929050565b600060208284031215611fb857611fb7611b1c565b5b6000611fc684828501611d69565b91505092915050565b611fd881611c93565b82525050565b6000602082019050611ff36000830184611fcf565b92915050565b61200281611bab565b811461200d57600080fd5b50565b60008135905061201f81611ff9565b92915050565b6000806040838503121561203c5761203b611b1c565b5b600061204a85828601611d69565b925050602061205b85828601612010565b9150509250929050565b600067ffffffffffffffff8211156120805761207f611e1b565b5b61208982611c27565b9050602081019050919050565b60006120a96120a484612065565b611e7b565b9050828152602081018484840111156120c5576120c4611e16565b5b6120d0848285611ec7565b509392505050565b600082601f8301126120ed576120ec611e11565b5b81356120fd848260208601612096565b91505092915050565b600080600080608085870312156121205761211f611b1c565b5b600061212e87828801611d69565b945050602061213f87828801611d69565b935050604061215087828801611cb4565b925050606085013567ffffffffffffffff81111561217157612170611b21565b5b61217d878288016120d8565b91505092959194509250565b600080604083850312156121a05761219f611b1c565b5b60006121ae85828601611d69565b92505060206121bf85828601611d69565b9150509250929050565b7f4e487b7100000000000000000000000000000000000000000000000000000000600052602260045260246000fd5b6000600282049050600182168061221057607f821691505b602082108103612223576122226121c9565b5b50919050565b600060608201905061223e6000830186611d28565b61224b6020830185611fcf565b6122586040830184611d28565b949350505050565b7f4e487b7100000000000000000000000000000000000000000000000000000000600052601160045260246000fd5b600061229a82611c93565b91507fffffffffffffffffffffffffffffffffffffffffffffffffffffffffffffffff82036122cc576122cb612260565b5b600182019050919050565b600081905092915050565b60006122ed82611be1565b6122f781856122d7565b9350612307818560208601611bfd565b80840191505092915050565b600061231f82856122e2565b915061232b82846122e2565b91508190509392505050565b7f536f756c626f756e643a207472616e73666572206e6f7420616c6c6f77656400600082015250565b600061236d601f83611bec565b915061237882612337565b602082019050919050565b6000602082019050818103600083015261239c81612360565b9050919050565b60008190508160005260206000209050919050565b60006020601f8301049050919050565b600082821b905092915050565b6000600883026124057fffffffffffffffffffffffffffffffffffffffffffffffffffffffffffffffff826123c8565b61240f86836123c8565b95508019841693508086168417925050509392505050565b6000819050919050565b600061244c61244761244284611c93565b612427565b611c93565b9050919050565b6000819050919050565b61246683612431565b61247a61247282612453565b8484546123d5565b825550505050565b600090565b61248f612482565b61249a81848461245d565b505050565b5b818110156124be576124b3600082612487565b6001810190506124a0565b5050565b601f821115612503576124d4816123a3565b6124dd846123b8565b810160208510156124ec578190505b6125006124f8856123b8565b83018261249f565b50505b505050565b600082821c905092915050565b600061252660001984600802612508565b1980831691505092915050565b600061253f8383612515565b9150826002028217905092915050565b61255882611be1565b67ffffffffffffffff81111561257157612570611e1b565b5b61257b82546121f8565b6125868282856124c2565b600060209050601f8311600181146125b957600084156125a7578287015190505b6125b18582612533565b865550612619565b601f1984166125c7866123a3565b60005b828110156125ef578489015182556001820191506020850194506020810190506125ca565b8683101561260c5784890151612608601f891682612515565b8355505b6001600288020188555050505b505050505050565b600081519050919050565b600082825260208201905092915050565b600061264882612621565b612652818561262c565b9350612662818560208601611bfd565b61266b81611c27565b840191505092915050565b600060808201905061268b6000830187611d28565b6126986020830186611d28565b6126a56040830185611fcf565b81810360608301526126b7818461263d565b905095945050505050565b6000815190506126d181611b52565b92915050565b6000602082840312156126ed576126ec611b1c565b5b60006126fb848285016126c2565b91505092915050565b7f4e487b7100000000000000000000000000000000000000000000000000000000600052601260045260246000fd5b60006040820190506127486000830185611d28565b6127556020830184611fcf565b939250505056fea264697066735822122089ec44dab68cec0df78329f90c50fd75d9997cbb753400edee9f8090dae3e37664736f6c634300081c0033",
  "linkReferences": {},
  "deployedLinkReferences": {}
}